:020000040000FA
:1000000002005000000080FB120080B900030200D3
:100010003A900200AA82AB8390008378007908802E
:1000200015E493A3AC82AD838A828B83F0A3AA826A
:10003000AB838C828D83D8E9D9E775823175830EC5
:1000400074001200627582037583007400120062EE
:1000500075D0007581BF751000751102759F000283
:100060000008C09FF59FE473D09F22D083D082C048
:100070009FE493C0E0740193C0E0740293F59F2263
:10008000790122202000BBB600D3AD00CAB900D34D
:10009000C300D2DA00D1D000B5E700D7D300BFAAA1
:1000A00000B3C200C9D000D3CB004954543138301A
:1000B000313300B3C2C9D0D3CB0051513A313033C0
:1000C000373637343137330054454C3A31383335CD
:1000D00030363136303938000002000000000000B0
:1000E0000000000000000000000000000000000010
:1000F000000000000000000000000302042444840B
:10010000649C40300FC80808281800001008060139
:10011000824C20180601061820408000060240404C
:1001200042CC0000FC040200FC0404FC000000407F
:10013000201F20404F4442407F4244434000090278
:100140008060F80704E4242424FF242424E4040029
:100150000000FF0080814529112F414181818000ED
:100160000C020000FE22222222FE22222222FE0077
:10017000000080601F020202027F020242827F00B2
:1001800000000F02008060F8070004048444241477
:100190000C040000010000FF0000384641404040D0
:1001A0004040780012020484E45C44C48082FE82F1
:1001B0008282FE82800002017F10103F80601F005B
:1001C0000000FF00000015020000F888888888FF02
:1001D00088888888F800000000001F080808087F49
:1001E000888888889F80F0001802808282828282BC
:1001F00082E2A2928A868280800000000000004095
:10020000807F00000000000000001B0280828282CC
:10021000FE8282828282FE82828280000080403062
:100220000F0000000000FF00000000001E0200FEA2
:10023000225A86088868180FE8080808080000FF96
:1002400004080720110D41817F01050930002102BA
:100250000000E2242820203F20202824E200000083
:100260000000FF00001F1111111F40807F000000DF
:10027000240220102CE7242400F01010FF1010F0AE
:1002800000000101017F211100FF42427F4242FF35
:10029000000000000000000000000000000000005E
:1002A0000000000000F800000000000000333000F3
:1002B000000000100C06100C0600000000000000FA
:1002C000000040C07840C0784000043F04043F0470
:1002D0000400007088FC08300000001820FF211E78
:1002E0000000F008F000E018000000211C031E21AF
:1002F0001E0000F00888700000001E21232419272A
:10030000211010160E000000000000000000000088
:100310000000000000E018040200000000071820A0
:10032000400000020418E000000000402018070010
:100330000000404080F0804040000202010F0102B6
:100340000200000000F0000000000101011F010197
:100350000100000000000000000080B070000000FC
:100360000000000000000000000000010101010188
:10037000010100000000000000000030300000001B
:1003800000000000000080601804006018060100F2
:10039000000000E010080810E000000F10202010FE
:1003A0000F00001010F8000000000020203F202067
:1003B00000000070080808887000003028242221FE
:1003C00030000030088888483000001820202011B4
:1003D0000E000000C02010F8000000070424243F95
:1003E000240000F80888880808000019212020113E
:1003F0000E0000E0108888180000000F1120201166
:100400000E0000380808C83808000000003F00004F
:1004100000000070880808887000001C222121223A
:100420001C0000E010080810E0000000312222113A
:100430000F00000000C0C0000000000000303000CD
:10044000000000000080000000000000806000004C
:100450000000000080402010080000010204081085
:100460002000404040404040400004040404040494
:100470000400000810204080000000201008040242
:100480000100007048080808F00000000030360144
:100490000000C030C828E810E00007182724231403
:1004A0000B000000C038E0000000203C23020227BF
:1004B000382008F8888888700000203F202020110C
:1004C0000E00C03008080808380007182020201047
:1004D000080008F808080810E000203F202020103D
:1004E0000F0008F88888E8081000203F202023200B
:1004F000180008F88888E8081000203F2000030052
:100500000000C03008080838000007182020221E0C
:10051000020008F808000008F808203F2101012126
:100520003F20000808F8080800000020203F202095
:10053000000000000808F8080800C08080807F00E4
:10054000000008F888C028180800203F200126383D
:10055000200008F8080000000000203F2020202094
:10056000300008F8F800F8F80800203F003F003F8E
:10057000200008F830C00008F808203F20000718C5
:100580003F00E01008080810E0000F1020202010A5
:100590000F0008F808080808F000203F21010101B9
:1005A0000000E01008080810E0000F18242438505C
:1005B0004F0008F8888888887000203F2000030CCE
:1005C00030200070880808083800003820212122D7
:1005D0001C00180808F8080818000000203F200038
:1005E000000008F808000008F808001F202020205C
:1005F0001F000878880000C83808000007380E017E
:100600000000F80800F80008F800033C0700073C69
:100610000300081868808068180820302C03032C19
:1006200030200838C800C83808000000203F2000EB
:10063000000010080808C8380800203826212020AB
:100640001800000000FE020202000000007F40408F
:100650004000000C30C0000000000000000106381F
:10066000C00000020202FE000000004040407F0087
:10067000000000000402020204000000000000006C
:10068000000000000000000000008080808080806A
:100690008080000202040000000000000000000052
:1006A00000000000808080800000001924222222A7
:1006B0003F2008F8008080000000003F112020113A
:1006C0000E000000008080800000000E112020201D
:1006D0001100000000808088F800000E112020101A
:1006E0003F200000808080800000001F2222222204
:1006F0001300008080F0888888180020203F202088
:1007000000000000808080808000006B94949493AF
:10071000600008F8008080800000203F2100002059
:100720003F2000809898000000000020203F2020FB
:100730000000000000809898000000C08080807F4A
:10074000000008F8000080808000203F24022D3047
:100750002000000808F8000000000020203F2020B2
:1007600000008080808080808000203F20003F202B
:10077000003F8080008080800000203F210000201A
:100780003F200000808080800000001F202020206B
:100790001F00808000808000000080FFA1202011C9
:1007A0000E000000008080808000000E112020A03C
:1007B000FF80808080008080800020203F212000FA
:1007C00001000000808080808000003324242424E5
:1007D0001900008080E0808000000000001F2020C1
:1007E00000008080000000808000001F202020107A
:1007F0003F20808080000080808000010E3008064D
:10080000010080800080008080800F300C030C305D
:100810000F0000808000808080000020312E0E318B
:100820002000808080000080808080818E7018068B
:10083000010000808080808080000021302C2221F7
:10084000300000000000807C020200000000003F39
:10085000404000000000FF00000000000000FF001A
:1008600000000002027C800000000040403F0000C9
:100870000000000601010202040400000000000064
:10088000000012006B7C090012006B450A00120088
:100890006B6A0A0012006B910A0012006BB80A0022
:1008A00012006BEC0A0012006B280B0012006B5E4A
:1008B0000B0012006B260C0012006B1B0D001200C7
:1008C0006BA20D0012006B670E002510C582C0E000
:1008D000E51134FFC583C0E0E510C3958224F8100C
:1008E000AF08858311858210800885831185821069
:1008F000D2AFCEF0A3E520F0A37808E608F0A3DE9F
:10090000FAEFF0A3E58124FAF8E608F0A3E608F090
:10091000A3E608F0A30808E608F0A3E608F0A3158C
:10092000811581D0E0FED0E0F8158115811581E8B0
:10093000C0E0EEC0E022851183851082E0A3FEE0D6
:10094000A3F5207808E0A3F608DFFAE0A3FFE0A310
:10095000C0E0E0A3C0E0E0A3C0E0E0A3C0E0E0A30B
:10096000C0E010AF08858210858311800885821051
:10097000858311D2AFD083D08202006874F7120849
:10098000CAEAFCEBFD7E0D7F00780079008008E864
:100990002401F8E93400F9C3E89EE99FA2D265D0AA
:1009A000334003020A3CE8FAE9FBEA75F022A4CAE4
:1009B00085F00875F000A42508F50875F022EBA471
:1009C0002508FB74552AF58274023BF583E0FAA3EF
:1009D000E0F5838A82E0FA8C828D83E06A70B0E869
:1009E000FAE9FBEA75F022A4CA85F00875F000A4C4
:1009F0002508F50875F022EBA42508FB74552AF5A7
:100A00008274023BF583E0FAA3E0F5838A82A3E0D7
:100A1000FA8C828D83A3E06A600302098FE875F087
:100A200022A4C8AAF075F000A42AFA75F022E9A45D
:100A30002AF9745728FA740239FB80047A577B022A
:100A40007F01020936801C78087907E8FCE9FDEC93
:100A500024FFF8ED34FFF9EC4D70F0EA24FFFAEBD7
:100A600034FFFBEA4B70E002006878087400D28023
:100A700078008009D293D292E9C333F908E8C3948D
:100A800008500BC29274805970EAC29380E8020049
:100A90006878087400C28078008009D293D292E905
:100AA000C333F908E8C39408500BC292748059709C
:100AB000EAC29380E802006874F71208CAE9FEEA05
:100AC000FFEEC394805020EFC39408501A74B02FE7
:100AD000F9120894EEC4540F4410F9120894740FDC
:100AE0005E4401F91208947F0102093674F7120876
:100AF000CAE9FE750800800EEEF912088E0FEFC3EA
:100B0000948040F40508E508C39408501674B02595
:100B100008F9120894790112089479101208947F48
:100B20000080DB7F0102093674F71208CA7F00805B
:100B30000D790012088E0EEEC3948040F40FEFC3BF
:100B40009408501574B02FF9120894790112089482
:100B500079101208947E0080DE7F01020936C0827F
:100B6000C08353F3EE43FD1153F47343FE8C53F3F0
:100B7000FE43FD0153F47343FE8CD292C2977A3246
:100B80007B00120888D29779AE1208947900120877
:100B9000947910120894794012089479811208947B
:100BA00079CF12089479A112089479C8120894791F
:100BB000A612089479A8120894793F12089479D360
:100BC000120894790012089479D512089479801249
:100BD000089479D912089479F112089479DA1208F4
:100BE00094791212089479DB1208947940120894CF
:100BF00079201208947902120894798D1208947958
:100C00001412089479A412089479A612089479AF62
:100C100012089479001208A07A00790012089AD07C
:100C200083D08202006874F01208CAE9FEEAFF8CE1
:100C30000E8D0F750C007508007509008047E50CD6
:100C4000A80C7900E875F010A4C8AAF075F000A40B
:100C50002AFA75F010E9A42AF985080A750B00E84C
:100C6000250AF8E9350BF9741728F582740439F56B
:100C700083E0F912088E0508E508C3940840BF74A4
:100C8000082EFE050985090A750B00E50E250AF5F3
:100C900082E50F350BF583E0607C85090A750B0052
:100CA000E50E250AF582E50F350BF583E024E0F526
:100CB0000CEEC3947940037E000FEFFAEEF91208B0
:100CC0009A750800803AE50CA80C7900E875F010D8
:100CD000A4C8AAF075F000A42AFA75F010E9A42AB5
:100CE000F985080A750B00E8250AF8E9350BF9744F
:100CF0000F28F582740439F583E0F912088E05088F
:100D0000E508C3940840BF74012FFAEEF912089A5F
:100D1000750800020C787F0802093674F31208CABD
:100D200089088A09ECFAEDFB750C007E007F00EA69
:100D30004B606A1208828A0A8B0BAE0AAF0BAA09B3
:100D4000A90812089A750C008017850C0A750B000B
:100D5000EE250AF582EF350BF583E0F912088E05D2
:100D60000CE50CC3941040E274012509FAA908129D
:100D7000089A750C00801F850C0A750B00EE250A79
:100D8000F8EF350BF9E82410F582E93400F583E03B
:100D9000F912088E050CE50CC3941040DA7F0502A9
:100DA000093674F21208CAE9FE8A098C0C8D0D7599
:100DB00008007F0078007900758200758300E50CDB
:100DC000450D6068AA0CAB0D1208C4EAF5087F0057
:100DD000EFC3950850568F0A750B00E50C250AF5F0
:100DE00082E50D350BF583E0C39480401E8F0A75B4
:100DF0000B00E50C250AFCE50D350BFDAA09EEF903
:100E00001208B80F0F74102EFE801B8F0A750B008E
:100E1000E50C250AFCE50D350BFDAA09EEF91208D3
:100E2000B20F74082EFEEEC3948040A47F06020920
:100E3000367E001208AC1208A67C277D027A007963
:100E4000001208BE7C307D027A0279001208BE7C56
:100E5000377D027A0479001208BE7C457D027A064D
:100E600079001208BE80FEC082C0838A828B838094
:100E700001A3E070FCE582C39AFAE5839BFBD08373
:050E8000D082020068B1
:0400000500000050A7
:00000001FF
